:100000000C9406010C9425010C9425010C942501F7
:100010000C9425010C9425010C9425010C942501C8
:100020000C9425010C9425010C9425010C942501B8
:100030000C9425010C9425010C9425010C942501A8
:100040000C9425010C9425010C9425010C94250198
:100050000C9425010C9425010C9425010C94380274
:100060000C9425010C9425010C9425010C94250178
:100070000C9425010C9425010C9425010C94250168
:100080000C9425010C9425010C9425010C94250158
:100090000C9425010C9425010C9425010C94250148
:1000A0000C9425010C9425010C9425010C94250138
:1000B0000C9425010C9425010C9425010C94250128
:1000C0000C9425010C9425010C9425010C94250118
:1000D0000C9425010C9425010C9425010C94250108
:1000E0000C942501E901EC01DF01E3012302F00199
:1000F000F401FA01FE01020208020C0210022302BE
:1001000016021A021E020000090A02080B0C0D0753
:1001100006030401000000000000000000000000D1
:1001200000000000000000000000000000000000CF
:10013000000011100F00000000000000000000008F
:10014000000000000000000000000000000022008D
:10015000250028002B002E00310034000201000091
:10016000050108010B0100002100240027002A00DE
:100170002D003000330001010000040107010A01D5
:1001800005050505070508080808020202020A0A13
:100190000808040404040101010101010101030331
:1001A000030303030303040707070C0C0C0C0C0CDC
:1001B0000C0C0202020206060606060606060B0BD9
:1001C0000B0B0B0B0B0B010210202008081020401A
:1001D000102040800201020108040201010204080B
:1001E0001020408080402010080402018004020199
:1001F00080402010080402010804020101020408E2
:1002000010204080010204081020408011241FBEED
:10021000CFEFD1E2DEBFCDBF12E0A0E0B2E0E6E476
:10022000F6E000E00BBF02C007900D92A431B107C9
:10023000D9F722E0A4E1B2E001C01D92AD31B207CE
:10024000E1F70E9482020C94BE020C94000090E040
:10025000FC01EA53FE4F2491FC01E058FE4F8491CB
:10026000882399F090E0880F991FFC01EA59FE4F0E
:10027000A591B491FC01E45BFE4F859194918FB7F9
:10028000F894EC91E22BEC938FBF089580917B0062
:10029000877F80937B0080E480937C0080917A004C
:1002A000806480937A0080917A0086FDFCCF8091F3
:1002B00078002091790090E0922B0895789484B58D
:1002C000826084BD84B5816084BD85B5826085BD52
:1002D00085B5816085BDEEE6F0E080818160808338
:1002E000E1E8F0E01082808182608083808181601B
:1002F0008083E0E8F0E0808181608083E1EBF0E0E2
:10030000808184608083E0EBF0E080818160808385
:10031000E1E9F0E080818260808380818160808378
:10032000E0E9F0E0808181608083E1EAF0E08081B3
:1003300082608083808181608083E0EAF0E0808158
:1003400081608083E1E2F1E080818260808380814E
:1003500081608083E0E2F1E0808181608083EAE770
:10036000F0E08081846080838081826080838081EE
:10037000816080838081806880831092C1000895AD
:10038000362F90E0FC01EA5FFE4F4491FC01EA53F6
:10039000FE4F2491FC01E058FE4F8491882309F41C
:1003A00066C0442309F44FC050E0FA013197E131AF
:1003B000F10508F048C0EE58FF4F0C9411039091DE
:1003C00080009F7703C0909180009F7D9093800074
:1003D0003AC094B59F7702C094B59F7D94BD33C059
:1003E0009091B0009F7703C09091B0009F7D909353
:1003F000B00029C0909190009F7707C09091900025
:100400009F7D03C090919000977F909390001BC0B8
:100410009091A0009F7707C09091A0009F7D03C09E
:100420009091A000977F9093A0000DC09091200123
:100430009F7707C0909120019F7D03C0909120017C
:10044000977F90932001E82FF0E0EE0FFF1FE45B11
:10045000FE4FA591B4919FB7F894311104C08C91CF
:100460002095282302C0EC912E2B2C939FBF08953A
:100470001F920F920FB60F9211242F933F938F93D9
:100480009F93AF93BF938091190290911A02A0910C
:100490001B02B0911C023091180223E0230F2D376C
:1004A00020F40196A11DB11D05C026E8230F029678
:1004B000A11DB11D209318028093190290931A0276
:1004C000A0931B02B0931C0280911402909115021C
:1004D000A0911602B09117020196A11DB11D809343
:1004E000140290931502A0931602B0931702BF91C5
:1004F000AF919F918F913F912F910F900FBE0F90D1
:100500001F9018950E945E01C0E0D2E0888122967B
:100510000E94270182E0C431D807C1F788248A9459
:1005200083E0982EA12CB12C90E0C92E90E0D92E1A
:100530000E9446012AE030E0DC010E941A03A50176
:1005400094010E94C102790100E012E0C0E0D0E015
:10055000CE15DF0514F461E001C060E0F801808190
:100560000E94C00121960E5F1F4FCA30D10581F74E
:10057000C114D104E9F20E940000DACFF8940C947F
:100580002103052E97FB1EF400940E94D80257FD0C
:1005900007D00E94E00207FC03D04EF40C94D8026E
:1005A00050954095309521953F4F4F4F5F4F08959F
:1005B00090958095709561957F4F8F4F9F4F0895CF
:1005C000A1E21A2EAA1BBB1BFD010DC0AA1FBB1F57
:1005D000EE1FFF1FA217B307E407F50720F0A21BC9
:1005E000B30BE40BF50B661F771F881F991F1A9436
:1005F00069F760957095809590959B01AC01BD0160
:10060000CF010895A29FB001B39FC001A39F700DB9
:10061000811D1124911DB29F700D811D1124911D0A
:100620000895EE0FFF1F0024001C0BBE0790F691EB
:10063000E02D09940E940203B7FF0895821B930BDB
:060640000895F894FFCFBD
:100646000200030004000500060007000800090078
:040656000A000B008B
:00000001FF
